{
  "_format": "hh-sol-artifact-1",
  "contractName": "Whitelist",
  "sourceName": "contracts/Whitelist.sol",
  "abi": [
    {
      "inputs": [
        {
          "internalType": "uint8",
          "name": "_maxWhitelistedAddresses",
          "type": "uint8"
        }
      ],
      "stateMutability": "nonpayable",
      "type": "constructor"
    },
    {
      "inputs": [],
      "name": "addAddressToWhitelist",
      "outputs": [],
      "stateMutability": "nonpayable",
      "type": "function"
    },
    {
      "inputs": [
        {
          "internalType": "address",
          "name": "",
          "type": "address"
        }
      ],
      "name": "whitelistedAddresses",
      "outputs": [
        {
          "internalType": "bool",
          "name": "",
          "type": "bool"
        }
      ],
      "stateMutability": "view",
      "type": "function"
    }
  ],
  "bytecode": "0x608060405234801561001057600080fd5b5060405161050f38038061050f83398181016040528101906100329190610080565b8060ff16600081905550506100ad565b600080fd5b600060ff82169050919050565b61005d81610047565b811461006857600080fd5b50565b60008151905061007a81610054565b92915050565b60006020828403121561009657610095610042565b5b60006100a48482850161006b565b91505092915050565b610453806100bc6000396000f3fe608060405234801561001057600080fd5b50600436106100365760003560e01c806306c933d81461003b5780638e7314d91461006b575b600080fd5b6100556004803603810190610050919061026c565b610075565b60405161006291906102b4565b60405180910390f35b610073610095565b005b60016020528060005260406000206000915054906101000a900460ff1681565b600160003373ffffffffffffffffffffffffffffffffffffffff1673ffffffffffffffffffffffffffffffffffffffff16815260200190815260200160002060009054906101000a900460ff1615610122576040517f08c379a00000000000000000000000000000000000000000000000000000000081526004016101199061032c565b60405180910390fd5b600054600260009054906101000a900460ff1660ff1610610178576040517f08c379a000000000000000000000000000000000000000000000000000000000815260040161016f90610398565b60405180910390fd5b60018060003373ffffffffffffffffffffffffffffffffffffffff1673ffffffffffffffffffffffffffffffffffffffff16815260200190815260200160002060006101000a81548160ff0219169083151502179055506002600081819054906101000a900460ff16809291906101ee906103f4565b91906101000a81548160ff021916908360ff16021790555050565b600080fd5b600073ffffffffffffffffffffffffffffffffffffffff82169050919050565b60006102398261020e565b9050919050565b6102498161022e565b811461025457600080fd5b50565b60008135905061026681610240565b92915050565b60006020828403121561028257610281610209565b5b600061029084828501610257565b91505092915050565b60008115159050919050565b6102ae81610299565b82525050565b60006020820190506102c960008301846102a5565b92915050565b600082825260208201905092915050565b7f53656e64657220697320616c72656164792077686974656c6973746564210000600082015250565b6000610316601e836102cf565b9150610321826102e0565b602082019050919050565b6000602082019050818103600083015261034581610309565b9050919050565b7f4d6f7265206164647265737365732063616e6e6f742062652061646465642100600082015250565b6000610382601f836102cf565b915061038d8261034c565b602082019050919050565b600060208201905081810360008301526103b181610375565b9050919050565b7f4e487b7100000000000000000000000000000000000000000000000000000000600052601160045260246000fd5b600060ff82169050919050565b60006103ff826103e7565b915060ff8203610412576104116103b8565b5b60018201905091905056fea2646970667358221220b232e6aff814d9dc76b91c407329fa677ad2703a9524a9746f5428192c916a1164736f6c63430008120033",
  "linkReferences": {},
  "deployedLinkReferences": {}
}